{
  "_format": "hh-sol-artifact-1",
  "contractName": "Mint",
  "sourceName": "contracts/Mint.sol",
  "abi": [
    {
      "inputs": [],
      "stateMutability": "nonpayable",
      "type": "constructor"
    },
    {
      "anonymous": false,
      "inputs": [
        {
          "indexed": true,
          "internalType": "address",
          "name": "owner",
          "type": "address"
        },
        {
          "indexed": true,
          "internalType": "address",
          "name": "approved",
          "type": "address"
        },
        {
          "indexed": true,
          "internalType": "uint256",
          "name": "tokenId",
          "type": "uint256"
        }
      ],
      "name": "Approval",
      "type": "event"
    },
    {
      "anonymous": false,
      "inputs": [
        {
          "indexed": true,
          "internalType": "address",
          "name": "owner",
          "type": "address"
        },
        {
          "indexed": true,
          "internalType": "address",
          "name": "operator",
          "type": "address"
        },
        {
          "indexed": false,
          "internalType": "bool",
          "name": "approved",
          "type": "bool"
        }
      ],
      "name": "ApprovalForAll",
      "type": "event"
    },
    {
      "anonymous": false,
      "inputs": [
        {
          "indexed": false,
          "internalType": "address",
          "name": "sender",
          "type": "address"
        },
        {
          "indexed": false,
          "internalType": "uint256",
          "name": "tokenId",
          "type": "uint256"
        }
      ],
      "name": "NewNFTMinted",
      "type": "event"
    },
    {
      "anonymous": false,
      "inputs": [
        {
          "indexed": true,
          "internalType": "address",
          "name": "from",
          "type": "address"
        },
        {
          "indexed": true,
          "internalType": "address",
          "name": "to",
          "type": "address"
        },
        {
          "indexed": true,
          "internalType": "uint256",
          "name": "tokenId",
          "type": "uint256"
        }
      ],
      "name": "Transfer",
      "type": "event"
    },
    {
      "inputs": [
        {
          "internalType": "address",
          "name": "to",
          "type": "address"
        },
        {
          "internalType": "uint256",
          "name": "tokenId",
          "type": "uint256"
        }
      ],
      "name": "approve",
      "outputs": [],
      "stateMutability": "nonpayable",
      "type": "function"
    },
    {
      "inputs": [
        {
          "internalType": "address",
          "name": "owner",
          "type": "address"
        }
      ],
      "name": "balanceOf",
      "outputs": [
        {
          "internalType": "uint256",
          "name": "",
          "type": "uint256"
        }
      ],
      "stateMutability": "view",
      "type": "function"
    },
    {
      "inputs": [
        {
          "internalType": "uint256",
          "name": "tokenId",
          "type": "uint256"
        }
      ],
      "name": "getApproved",
      "outputs": [
        {
          "internalType": "address",
          "name": "",
          "type": "address"
        }
      ],
      "stateMutability": "view",
      "type": "function"
    },
    {
      "inputs": [
        {
          "internalType": "address",
          "name": "owner",
          "type": "address"
        },
        {
          "internalType": "address",
          "name": "operator",
          "type": "address"
        }
      ],
      "name": "isApprovedForAll",
      "outputs": [
        {
          "internalType": "bool",
          "name": "",
          "type": "bool"
        }
      ],
      "stateMutability": "view",
      "type": "function"
    },
    {
      "inputs": [],
      "name": "mintYourNft",
      "outputs": [],
      "stateMutability": "nonpayable",
      "type": "function"
    },
    {
      "inputs": [],
      "name": "name",
      "outputs": [
        {
          "internalType": "string",
          "name": "",
          "type": "string"
        }
      ],
      "stateMutability": "view",
      "type": "function"
    },
    {
      "inputs": [
        {
          "internalType": "uint256",
          "name": "tokenId",
          "type": "uint256"
        }
      ],
      "name": "ownerOf",
      "outputs": [
        {
          "internalType": "address",
          "name": "",
          "type": "address"
        }
      ],
      "stateMutability": "view",
      "type": "function"
    },
    {
      "inputs": [
        {
          "internalType": "uint256",
          "name": "tokenId",
          "type": "uint256"
        }
      ],
      "name": "pickFirstRandom",
      "outputs": [
        {
          "internalType": "string",
          "name": "",
          "type": "string"
        }
      ],
      "stateMutability": "view",
      "type": "function"
    },
    {
      "inputs": [
        {
          "internalType": "uint256",
          "name": "tokenId",
          "type": "uint256"
        }
      ],
      "name": "pickSecondRandom",
      "outputs": [
        {
          "internalType": "string",
          "name": "",
          "type": "string"
        }
      ],
      "stateMutability": "view",
      "type": "function"
    },
    {
      "inputs": [
        {
          "internalType": "uint256",
          "name": "tokenId",
          "type": "uint256"
        }
      ],
      "name": "pickThirdRandom",
      "outputs": [
        {
          "internalType": "string",
          "name": "",
          "type": "string"
        }
      ],
      "stateMutability": "view",
      "type": "function"
    },
    {
      "inputs": [
        {
          "internalType": "address",
          "name": "from",
          "type": "address"
        },
        {
          "internalType": "address",
          "name": "to",
          "type": "address"
        },
        {
          "internalType": "uint256",
          "name": "tokenId",
          "type": "uint256"
        }
      ],
      "name": "safeTransferFrom",
      "outputs": [],
      "stateMutability": "nonpayable",
      "type": "function"
    },
    {
      "inputs": [
        {
          "internalType": "address",
          "name": "from",
          "type": "address"
        },
        {
          "internalType": "address",
          "name": "to",
          "type": "address"
        },
        {
          "internalType": "uint256",
          "name": "tokenId",
          "type": "uint256"
        },
        {
          "internalType": "bytes",
          "name": "_data",
          "type": "bytes"
        }
      ],
      "name": "safeTransferFrom",
      "outputs": [],
      "stateMutability": "nonpayable",
      "type": "function"
    },
    {
      "inputs": [
        {
          "internalType": "address",
          "name": "operator",
          "type": "address"
        },
        {
          "internalType": "bool",
          "name": "approved",
          "type": "bool"
        }
      ],
      "name": "setApprovalForAll",
      "outputs": [],
      "stateMutability": "nonpayable",
      "type": "function"
    },
    {
      "inputs": [
        {
          "internalType": "bytes4",
          "name": "interfaceId",
          "type": "bytes4"
        }
      ],
      "name": "supportsInterface",
      "outputs": [
        {
          "internalType": "bool",
          "name": "",
          "type": "bool"
        }
      ],
      "stateMutability": "view",
      "type": "function"
    },
    {
      "inputs": [],
      "name": "symbol",
      "outputs": [
        {
          "internalType": "string",
          "name": "",
          "type": "string"
        }
      ],
      "stateMutability": "view",
      "type": "function"
    },
    {
      "inputs": [
        {
          "internalType": "uint256",
          "name": "tokenId",
          "type": "uint256"
        }
      ],
      "name": "tokenURI",
      "outputs": [
        {
          "internalType": "string",
          "name": "",
          "type": "string"
        }
      ],
      "stateMutability": "view",
      "type": "function"
    },
    {
      "inputs": [
        {
          "internalType": "address",
          "name": "from",
          "type": "address"
        },
        {
          "internalType": "address",
          "name": "to",
          "type": "address"
        },
        {
          "internalType": "uint256",
          "name": "tokenId",
          "type": "uint256"
        }
      ],
      "name": "transferFrom",
      "outputs": [],
      "stateMutability": "nonpayable",
      "type": "function"
    }
  ],
  "bytecode": "0x608060405260405180610160016040528061012f81526020016200475e61012f9139600890805190602001906200003892919062000a8b565b506040518061018001604052806040518060400160405280600681526020017f4970686f6e65000000000000000000000000000000000000000000000000000081525081526020016040518060400160405280600781526020017f5368616d706f6f0000000000000000000000000000000000000000000000000081525081526020016040518060400160405280600581526020017f4372617a7900000000000000000000000000000000000000000000000000000081525081526020016040518060400160405280600681526020017f43727970746f000000000000000000000000000000000000000000000000000081525081526020016040518060400160405280600581526020017f576f726c6400000000000000000000000000000000000000000000000000000081525081526020016040518060400160405280600681526020017f507265747479000000000000000000000000000000000000000000000000000081525081526020016040518060400160405280600881526020017f536f6c696469747900000000000000000000000000000000000000000000000081525081526020016040518060400160405280600981526020017f446966666963756c74000000000000000000000000000000000000000000000081525081526020016040518060400160405280600781526020017f416d617a696e670000000000000000000000000000000000000000000000000081525081526020016040518060400160405280600981526020017f446576656c6f706572000000000000000000000000000000000000000000000081525081526020016040518060400160405280600981526020017f4272696c6c69616e74000000000000000000000000000000000000000000000081525081526020016040518060400160405280600b81526020017f50657373696d6973746963000000000000000000000000000000000000000000815250815250600990600c6200031992919062000b1c565b506040518061018001604052806040518060400160405280600481526020017f4865726f0000000000000000000000000000000000000000000000000000000081525081526020016040518060400160405280600681526020017f537069646572000000000000000000000000000000000000000000000000000081525081526020016040518060400160405280600581526020017f446f67677900000000000000000000000000000000000000000000000000000081525081526020016040518060400160405280600681526020017f537475706964000000000000000000000000000000000000000000000000000081525081526020016040518060400160405280600381526020017f527567000000000000000000000000000000000000000000000000000000000081525081526020016040518060400160405280600681526020017f5363616d6d79000000000000000000000000000000000000000000000000000081525081526020016040518060400160405280600a81526020017f4a6176617363726970740000000000000000000000000000000000000000000081525081526020016040518060400160405280600781526020017f53616d73756e670000000000000000000000000000000000000000000000000081525081526020016040518060400160405280600881526020017f576861746576657200000000000000000000000000000000000000000000000081525081526020016040518060400160405280600981526020017f4f7665727261746564000000000000000000000000000000000000000000000081525081526020016040518060400160405280600681526020017f506c61796572000000000000000000000000000000000000000000000000000081525081526020016040518060400160405280600581526020017f41726d6564000000000000000000000000000000000000000000000000000000815250815250600a90600c620005fa92919062000b1c565b506040518061018001604052806040518060400160405280600581526020017f506c75746f00000000000000000000000000000000000000000000000000000081525081526020016040518060400160405280600581526020017f506574657200000000000000000000000000000000000000000000000000000081525081526020016040518060400160405280600581526020017f436f726e7900000000000000000000000000000000000000000000000000000081525081526020016040518060400160405280600481526020017f436f6f6b0000000000000000000000000000000000000000000000000000000081525081526020016040518060400160405280600881526020017f436f6c6c65746f7200000000000000000000000000000000000000000000000081525081526020016040518060400160405280600681526020017f4e617275746f000000000000000000000000000000000000000000000000000081525081526020016040518060400160405280600781526020017f54616e6a69726f0000000000000000000000000000000000000000000000000081525081526020016040518060400160405280600681526020017f4f72616e6a65000000000000000000000000000000000000000000000000000081525081526020016040518060400160405280600681526020017f436972636c65000000000000000000000000000000000000000000000000000081525081526020016040518060400160405280600881526020017f44657369676e657200000000000000000000000000000000000000000000000081525081526020016040518060400160405280600781526020017f4166726963616e0000000000000000000000000000000000000000000000000081525081526020016040518060400160405280600581526020017f417369616e000000000000000000000000000000000000000000000000000000815250815250600b90600c620008db92919062000b1c565b50348015620008e957600080fd5b506040518060400160405280600981526020017f5371756172654e465400000000000000000000000000000000000000000000008152506040518060400160405280600681526020017f535155415245000000000000000000000000000000000000000000000000000081525081600090805190602001906200096e92919062000a8b565b5080600190805190602001906200098792919062000a8b565b505050620009b96040518060600160405280602581526020016200488d60259139620009bf60201b620010f31760201c565b62000d3d565b62000a5f81604051602401620009d6919062000c51565b6040516020818303038152906040527f41304fac000000000000000000000000000000000000000000000000000000007bffffffffffffffffffffffffffffffffffffffffffffffffffffffff19166020820180517bffffffffffffffffffffffffffffffffffffffffffffffffffffffff838183161783525050505062000a6260201b60201c565b50565b60008151905060006a636f6e736f6c652e6c6f679050602083016000808483855afa5050505050565b82805462000a999062000cc7565b90600052602060002090601f01602090048101928262000abd576000855562000b09565b82601f1062000ad857805160ff191683800117855562000b09565b8280016001018555821562000b09579182015b8281111562000b0857825182559160200191906001019062000aeb565b5b50905062000b18919062000b83565b5090565b82805482825590600052602060002090810192821562000b70579160200282015b8281111562000b6f57825182908051906020019062000b5e92919062000a8b565b509160200191906001019062000b3d565b5b50905062000b7f919062000ba2565b5090565b5b8082111562000b9e57600081600090555060010162000b84565b5090565b5b8082111562000bc6576000818162000bbc919062000bca565b5060010162000ba3565b5090565b50805462000bd89062000cc7565b6000825580601f1062000bec575062000c0d565b601f01602090049060005260206000209081019062000c0c919062000b83565b5b50565b600062000c1d8262000c75565b62000c29818562000c80565b935062000c3b81856020860162000c91565b62000c468162000d2c565b840191505092915050565b6000602082019050818103600083015262000c6d818462000c10565b905092915050565b600081519050919050565b600082825260208201905092915050565b60005b8381101562000cb157808201518184015260208101905062000c94565b8381111562000cc1576000848401525b50505050565b6000600282049050600182168062000ce057607f821691505b6020821081141562000cf75762000cf662000cfd565b5b50919050565b7f4e487b7100000000000000000000000000000000000000000000000000000000600052602260045260246000fd5b6000601f19601f8301169050919050565b613a118062000d4d6000396000f3fe608060405234801561001057600080fd5b506004361061010b5760003560e01c806370a08231116100a2578063a22cb46511610071578063a22cb465146102ca578063b88d4fde146102e6578063c87b56dd14610302578063e985e9c514610332578063ee9b128f146103625761010b565b806370a082311461024257806379c91277146102725780638c3cb6ba146102a257806395d89b41146102ac5761010b565b806323b872dd116100de57806323b872dd146101aa578063401188f8146101c657806342842e0e146101f65780636352211e146102125761010b565b806301ffc9a71461011057806306fdde0314610140578063081812fc1461015e578063095ea7b31461018e575b600080fd5b61012a6004803603810190610125919061251f565b610392565b6040516101379190612c29565b60405180910390f35b610148610474565b6040516101559190612c44565b60405180910390f35b61017860048036038101906101739190612571565b610506565b6040516101859190612b99565b60405180910390f35b6101a860048036038101906101a391906124e3565b61058b565b005b6101c460048036038101906101bf91906123dd565b6106a3565b005b6101e060048036038101906101db9190612571565b610703565b6040516101ed9190612c44565b60405180910390f35b610210600480360381019061020b91906123dd565b610821565b005b61022c60048036038101906102279190612571565b610841565b6040516102399190612b99565b60405180910390f35b61025c60048036038101906102579190612378565b6108f3565b6040516102699190612ea4565b60405180910390f35b61028c60048036038101906102879190612571565b6109ab565b6040516102999190612c44565b60405180910390f35b6102aa610ac9565b005b6102b4610ce5565b6040516102c19190612c44565b60405180910390f35b6102e460048036038101906102df91906124a7565b610d77565b005b61030060048036038101906102fb919061242c565b610d8d565b005b61031c60048036038101906103179190612571565b610def565b6040516103299190612c44565b60405180910390f35b61034c600480360381019061034791906123a1565b610f41565b6040516103599190612c29565b60405180910390f35b61037c60048036038101906103779190612571565b610fd5565b6040516103899190612c44565b60405180910390f35b60007f80ac58cd000000000000000000000000000000000000000000000000000000007bffffffffffffffffffffffffffffffffffffffffffffffffffffffff1916827bffffffffffffffffffffffffffffffffffffffffffffffffffffffff1916148061045d57507f5b5e139f000000000000000000000000000000000000000000000000000000007bffffffffffffffffffffffffffffffffffffffffffffffffffffffff1916827bffffffffffffffffffffffffffffffffffffffffffffffffffffffff1916145b8061046d575061046c8261118c565b5b9050919050565b60606000805461048390613138565b80601f01602080910402602001604051908101604052809291908181526020018280546104af90613138565b80156104fc5780601f106104d1576101008083540402835291602001916104fc565b820191906000526020600020905b8154815290600101906020018083116104df57829003601f168201915b5050505050905090565b6000610511826111f6565b610550576040517f08c379a000000000000000000000000000000000000000000000000000000000815260040161054790612e24565b60405180910390fd5b6004600083815260200190815260200160002060009054906101000a900473ffffffffffffffffffffffffffffffffffffffff169050919050565b600061059682610841565b90508073ffffffffffffffffffffffffffffffffffffffff168373ffffffffffffffffffffffffffffffffffffffff161415610607576040517f08c379a00000000000000000000000000000000000000000000000000000000081526004016105fe90612e64565b60405180910390fd5b8073ffffffffffffffffffffffffffffffffffffffff16610626611262565b73ffffffffffffffffffffffffffffffffffffffff16148061065557506106548161064f611262565b610f41565b5b610694576040517f08c379a000000000000000000000000000000000000000000000000000000000815260040161068b90612d64565b60405180910390fd5b61069e838361126a565b505050565b6106b46106ae611262565b82611323565b6106f3576040517f08c379a00000000000000000000000000000000000000000000000000000000081526004016106ea90612e84565b60405180910390fd5b6106fe838383611401565b505050565b6060600061073761071384611668565b6040516020016107239190612b55565b604051602081830303815290604052611815565b90506009805490508161074a91906131e4565b905060098181548110610786577f4e487b7100000000000000000000000000000000000000000000000000000000600052603260045260246000fd5b90600052602060002001805461079b90613138565b80601f01602080910402602001604051908101604052809291908181526020018280546107c790613138565b80156108145780601f106107e957610100808354040283529160200191610814565b820191906000526020600020905b8154815290600101906020018083116107f757829003601f168201915b5050505050915050919050565b61083c83838360405180602001604052806000815250610d8d565b505050565b6000806002600084815260200190815260200160002060009054906101000a900473ffffffffffffffffffffffffffffffffffffffff169050600073ffffffffffffffffffffffffffffffffffffffff168173ffffffffffffffffffffffffffffffffffffffff1614156108ea576040517f08c379a00000000000000000000000000000000000000000000000000000000081526004016108e190612da4565b60405180910390fd5b80915050919050565b60008073ffffffffffffffffffffffffffffffffffffffff168273ffffffffffffffffffffffffffffffffffffffff161415610964576040517f08c379a000000000000000000000000000000000000000000000000000000000815260040161095b90612d84565b60405180910390fd5b600360008373ffffffffffffffffffffffffffffffffffffffff1673ffffffffffffffffffffffffffffffffffffffff168152602001908152602001600020549050919050565b606060006109df6109bb84611668565b6040516020016109cb9190612aee565b604051602081830303815290604052611815565b9050600a80549050816109f291906131e4565b9050600a8181548110610a2e577f4e487b7100000000000000000000000000000000000000000000000000000000600052603260045260246000fd5b906000526020600020018054610a4390613138565b80601f0160208091040260200160405190810160405280929190818152602001828054610a6f90613138565b8015610abc5780601f10610a9157610100808354040283529160200191610abc565b820191906000526020600020905b815481529060010190602001808311610a9f57829003601f168201915b5050505050915050919050565b6000610ad56007611848565b90506000610ae282610703565b90506000610aef836109ab565b90506000610afc84610fd5565b90506000838383604051602001610b1593929190612a6c565b60405160208183030381529060405290506000600882604051602001610b3c929190612a9d565b60405160208183030381529060405290506000610b8183610b5c84611856565b604051602001610b6d929190612b10565b604051602081830303815290604052611856565b9050600081604051602001610b969190612b77565b6040516020818303038152906040529050610be56040518060400160405280601581526020017f0a2d2d2d2d2d2d2d2d2d2d2d2d2d2d2d2d2d2d2d2d00000000000000000000008152506110f3565b610bee816110f3565b610c2c6040518060400160405280601581526020017f2d2d2d2d2d2d2d2d2d2d2d2d2d2d2d2d2d2d2d2d0a00000000000000000000008152506110f3565b610c363389611a14565b610c75886040518060400160405280600581526020017f6c61746572000000000000000000000000000000000000000000000000000000815250611a32565b610c98604051806060016040528060258152602001613977602591398933611aa6565b610ca26007611b45565b7f1c05098ed1ff38e6238d2b1b04b2c7977d4c94ce651bda6473f9dba8dbf01da03389604051610cd3929190612c00565b60405180910390a15050505050505050565b606060018054610cf490613138565b80601f0160208091040260200160405190810160405280929190818152602001828054610d2090613138565b8015610d6d5780601f10610d4257610100808354040283529160200191610d6d565b820191906000526020600020905b815481529060010190602001808311610d5057829003601f168201915b5050505050905090565b610d89610d82611262565b8383611b5b565b5050565b610d9e610d98611262565b83611323565b610ddd576040517f08c379a0000000000000000000000000000000000000000000000000000000008152600401610dd490612e84565b60405180910390fd5b610de984848484611cc8565b50505050565b6060610dfa826111f6565b610e39576040517f08c379a0000000000000000000000000000000000000000000000000000000008152600401610e3090612e04565b60405180910390fd5b6000600660008481526020019081526020016000208054610e5990613138565b80601f0160208091040260200160405190810160405280929190818152602001828054610e8590613138565b8015610ed25780601f10610ea757610100808354040283529160200191610ed2565b820191906000526020600020905b815481529060010190602001808311610eb557829003601f168201915b505050505090506000610ee3611d24565b9050600081511415610ef9578192505050610f3c565b600082511115610f2e578082604051602001610f16929190612a48565b60405160208183030381529060405292505050610f3c565b610f3784611d3b565b925050505b919050565b6000600560008473ffffffffffffffffffffffffffffffffffffffff1673ffffffffffffffffffffffffffffffffffffffff16815260200190815260200160002060008373ffffffffffffffffffffffffffffffffffffffff1673ffffffffffffffffffffffffffffffffffffffff16815260200190815260200160002060009054906101000a900460ff16905092915050565b60606000611009610fe584611668565b604051602001610ff59190612acc565b604051602081830303815290604052611815565b9050600b805490508161101c91906131e4565b9050600b8181548110611058577f4e487b7100000000000000000000000000000000000000000000000000000000600052603260045260246000fd5b90600052602060002001805461106d90613138565b80601f016020809104026020016040519081016040528092919081815260200182805461109990613138565b80156110e65780601f106110bb576101008083540402835291602001916110e6565b820191906000526020600020905b8154815290600101906020018083116110c957829003601f168201915b5050505050915050919050565b611189816040516024016111079190612c44565b6040516020818303038152906040527f41304fac000000000000000000000000000000000000000000000000000000007bffffffffffffffffffffffffffffffffffffffffffffffffffffffff19166020820180517bffffffffffffffffffffffffffffffffffffffffffffffffffffffff8381831617835250505050611de2565b50565b60007f01ffc9a7000000000000000000000000000000000000000000000000000000007bffffffffffffffffffffffffffffffffffffffffffffffffffffffff1916827bffffffffffffffffffffffffffffffffffffffffffffffffffffffff1916149050919050565b60008073ffffffffffffffffffffffffffffffffffffffff166002600084815260200190815260200160002060009054906101000a900473ffffffffffffffffffffffffffffffffffffffff1673ffffffffffffffffffffffffffffffffffffffff1614159050919050565b600033905090565b816004600083815260200190815260200160002060006101000a81548173ffffffffffffffffffffffffffffffffffffffff021916908373ffffffffffffffffffffffffffffffffffffffff160217905550808273ffffffffffffffffffffffffffffffffffffffff166112dd83610841565b73ffffffffffffffffffffffffffffffffffffffff167f8c5be1e5ebec7d5bd14f71427d1e84f3dd0314c0f7b2291e5b200ac8c7c3b92560405160405180910390a45050565b600061132e826111f6565b61136d576040517f08c379a000000000000000000000000000000000000000000000000000000000815260040161136490612d44565b60405180910390fd5b600061137883610841565b90508073ffffffffffffffffffffffffffffffffffffffff168473ffffffffffffffffffffffffffffffffffffffff1614806113e757508373ffffffffffffffffffffffffffffffffffffffff166113cf84610506565b73ffffffffffffffffffffffffffffffffffffffff16145b806113f857506113f78185610f41565b5b91505092915050565b8273ffffffffffffffffffffffffffffffffffffffff1661142182610841565b73ffffffffffffffffffffffffffffffffffffffff1614611477576040517f08c379a000000000000000000000000000000000000000000000000000000000815260040161146e90612cc4565b60405180910390fd5b600073ffffffffffffffffffffffffffffffffffffffff168273ffffffffffffffffffffffffffffffffffffffff1614156114e7576040517f08c379a00000000000000000000000000000000000000000000000000000000081526004016114de90612d04565b60405180910390fd5b6114f2838383611e0b565b6114fd60008261126a565b6001600360008573ffffffffffffffffffffffffffffffffffffffff1673ffffffffffffffffffffffffffffffffffffffff168152602001908152602001600020600082825461154d919061304e565b925050819055506001600360008473ffffffffffffffffffffffffffffffffffffffff1673ffffffffffffffffffffffffffffffffffffffff16815260200190815260200160002060008282546115a49190612f6d565b92505081905550816002600083815260200190815260200160002060006101000a81548173ffffffffffffffffffffffffffffffffffffffff021916908373ffffffffffffffffffffffffffffffffffffffff160217905550808273ffffffffffffffffffffffffffffffffffffffff168473ffffffffffffffffffffffffffffffffffffffff167fddf252ad1be2c89b69c2b068fc378daa952ba7f163c4a11628f55a4df523b3ef60405160405180910390a4611663838383611e10565b505050565b606060008214156116b0576040518060400160405280600181526020017f30000000000000000000000000000000000000000000000000000000000000008152509050611810565b600082905060005b600082146116e25780806116cb9061319b565b915050600a826116db9190612fc3565b91506116b8565b60008167ffffffffffffffff811115611724577f4e487b7100000000000000000000000000000000000000000000000000000000600052604160045260246000fd5b6040519080825280601f01601f1916602001820160405280156117565781602001600182028036833780820191505090505b5090505b600085146118095760018261176f919061304e565b9150600a8561177e91906131e4565b603061178a9190612f6d565b60f81b8183815181106117c6577f4e487b7100000000000000000000000000000000000000000000000000000000600052603260045260246000fd5b60200101907effffffffffffffffffffffffffffffffffffffffffffffffffffffffffffff1916908160001a905350600a856118029190612fc3565b945061175a565b8093505050505b919050565b6000816040516020016118289190612a31565b6040516020818303038152906040528051906020012060001c9050919050565b600081600001549050919050565b6060600082519050600081141561187f5760405180602001604052806000815250915050611a0f565b600060036002836118909190612f6d565b61189a9190612fc3565b60046118a69190612ff4565b905060006020826118b79190612f6d565b67ffffffffffffffff8111156118f6577f4e487b7100000000000000000000000000000000000000000000000000000000600052604160045260246000fd5b6040519080825280601f01601f1916602001820160405280156119285781602001600182028036833780820191505090505b509050600060405180606001604052806040815260200161399c604091399050600181016020830160005b868110156119cc5760038101905062ffffff818a015116603f8160121c168401518060081b905060ff603f83600c1c1686015116810190508060081b905060ff603f8360061c1686015116810190508060081b905060ff603f831686015116810190508060e01b90508084526004840193505050611953565b5060038606600181146119e657600281146119f657611a01565b613d3d60f01b6002830352611a01565b603d60f81b60018303525b508484525050819450505050505b919050565b611a2e828260405180602001604052806000815250611e15565b5050565b611a3b826111f6565b611a7a576040517f08c379a0000000000000000000000000000000000000000000000000000000008152600401611a7190612dc4565b60405180910390fd5b80600660008481526020019081526020016000209080519060200190611aa1929190612204565b505050565b611b40838383604051602401611abe93929190612c66565b6040516020818303038152906040527fe3849f79000000000000000000000000000000000000000000000000000000007bffffffffffffffffffffffffffffffffffffffffffffffffffffffff19166020820180517bffffffffffffffffffffffffffffffffffffffffffffffffffffffff8381831617835250505050611de2565b505050565b6001816000016000828254019250508190555050565b8173ffffffffffffffffffffffffffffffffffffffff168373ffffffffffffffffffffffffffffffffffffffff161415611bca576040517f08c379a0000000000000000000000000000000000000000000000000000000008152600401611bc190612d24565b60405180910390fd5b80600560008573ffffffffffffffffffffffffffffffffffffffff1673ffffffffffffffffffffffffffffffffffffffff16815260200190815260200160002060008473ffffffffffffffffffffffffffffffffffffffff1673ffffffffffffffffffffffffffffffffffffffff16815260200190815260200160002060006101000a81548160ff0219169083151502179055508173ffffffffffffffffffffffffffffffffffffffff168373ffffffffffffffffffffffffffffffffffffffff167f17307eab39ab6107e8899845ad3d59bd9653f200f220920489ca2b5937696c3183604051611cbb9190612c29565b60405180910390a3505050565b611cd3848484611401565b611cdf84848484611e70565b611d1e576040517f08c379a0000000000000000000000000000000000000000000000000000000008152600401611d1590612ca4565b60405180910390fd5b50505050565b606060405180602001604052806000815250905090565b6060611d46826111f6565b611d85576040517f08c379a0000000000000000000000000000000000000000000000000000000008152600401611d7c90612e44565b60405180910390fd5b6000611d8f611d24565b90506000815111611daf5760405180602001604052806000815250611dda565b80611db984611668565b604051602001611dca929190612a48565b6040516020818303038152906040525b915050919050565b60008151905060006a636f6e736f6c652e6c6f679050602083016000808483855afa5050505050565b505050565b505050565b611e1f8383612007565b611e2c6000848484611e70565b611e6b576040517f08c379a0000000000000000000000000000000000000000000000000000000008152600401611e6290612ca4565b60405180910390fd5b505050565b6000611e918473ffffffffffffffffffffffffffffffffffffffff166121e1565b15611ffa578373ffffffffffffffffffffffffffffffffffffffff1663150b7a02611eba611262565b8786866040518563ffffffff1660e01b8152600401611edc9493929190612bb4565b602060405180830381600087803b158015611ef657600080fd5b505af1925050508015611f2757506040513d601f19601f82011682018060405250810190611f249190612548565b60015b611faa573d8060008114611f57576040519150601f19603f3d011682016040523d82523d6000602084013e611f5c565b606091505b50600081511415611fa2576040517f08c379a0000000000000000000000000000000000000000000000000000000008152600401611f9990612ca4565b60405180910390fd5b805181602001fd5b63150b7a0260e01b7bffffffffffffffffffffffffffffffffffffffffffffffffffffffff1916817bffffffffffffffffffffffffffffffffffffffffffffffffffffffff191614915050611fff565b600190505b949350505050565b600073ffffffffffffffffffffffffffffffffffffffff168273ffffffffffffffffffffffffffffffffffffffff161415612077576040517f08c379a000000000000000000000000000000000000000000000000000000000815260040161206e90612de4565b60405180910390fd5b612080816111f6565b156120c0576040517f08c379a00000000000000000000000000000000000000000000000000000000081526004016120b790612ce4565b60405180910390fd5b6120cc60008383611e0b565b6001600360008473ffffffffffffffffffffffffffffffffffffffff1673ffffffffffffffffffffffffffffffffffffffff168152602001908152602001600020600082825461211c9190612f6d565b92505081905550816002600083815260200190815260200160002060006101000a81548173ffffffffffffffffffffffffffffffffffffffff021916908373ffffffffffffffffffffffffffffffffffffffff160217905550808273ffffffffffffffffffffffffffffffffffffffff16600073ffffffffffffffffffffffffffffffffffffffff167fddf252ad1be2c89b69c2b068fc378daa952ba7f163c4a11628f55a4df523b3ef60405160405180910390a46121dd60008383611e10565b5050565b6000808273ffffffffffffffffffffffffffffffffffffffff163b119050919050565b82805461221090613138565b90600052602060002090601f0160209004810192826122325760008555612279565b82601f1061224b57805160ff1916838001178555612279565b82800160010185558215612279579182015b8281111561227857825182559160200191906001019061225d565b5b509050612286919061228a565b5090565b5b808211156122a357600081600090555060010161228b565b5090565b60006122ba6122b584612ee4565b612ebf565b9050828152602081018484840111156122d257600080fd5b6122dd8482856130f6565b509392505050565b6000813590506122f48161391a565b92915050565b60008135905061230981613931565b92915050565b60008135905061231e81613948565b92915050565b60008151905061233381613948565b92915050565b600082601f83011261234a57600080fd5b813561235a8482602086016122a7565b91505092915050565b6000813590506123728161395f565b92915050565b60006020828403121561238a57600080fd5b6000612398848285016122e5565b91505092915050565b600080604083850312156123b457600080fd5b60006123c2858286016122e5565b92505060206123d3858286016122e5565b9150509250929050565b6000806000606084860312156123f257600080fd5b6000612400868287016122e5565b9350506020612411868287016122e5565b925050604061242286828701612363565b9150509250925092565b6000806000806080858703121561244257600080fd5b6000612450878288016122e5565b9450506020612461878288016122e5565b935050604061247287828801612363565b925050606085013567ffffffffffffffff81111561248f57600080fd5b61249b87828801612339565b91505092959194509250565b600080604083850312156124ba57600080fd5b60006124c8858286016122e5565b92505060206124d9858286016122fa565b9150509250929050565b600080604083850312156124f657600080fd5b6000612504858286016122e5565b925050602061251585828601612363565b9150509250929050565b60006020828403121561253157600080fd5b600061253f8482850161230f565b91505092915050565b60006020828403121561255a57600080fd5b600061256884828501612324565b91505092915050565b60006020828403121561258357600080fd5b600061259184828501612363565b91505092915050565b6125a381613082565b82525050565b6125b281613094565b82525050565b60006125c382612f2a565b6125cd8185612f40565b93506125dd818560208601613105565b6125e6816132d1565b840191505092915050565b60006125fc82612f35565b6126068185612f51565b9350612616818560208601613105565b61261f816132d1565b840191505092915050565b600061263582612f35565b61263f8185612f62565b935061264f818560208601613105565b80840191505092915050565b6000815461266881613138565b6126728186612f62565b9450600182166000811461268d576001811461269e576126d1565b60ff198316865281860193506126d1565b6126a785612f15565b60005b838110156126c9578154818901526001820191506020810190506126aa565b838801955050505b50505092915050565b60006126e7603283612f51565b91506126f2826132e2565b604082019050919050565b600061270a602583612f51565b915061271582613331565b604082019050919050565b600061272d601c83612f51565b915061273882613380565b602082019050919050565b6000612750600a83612f62565b915061275b826133a9565b600a82019050919050565b6000612773602483612f51565b915061277e826133d2565b604082019050919050565b6000612796601983612f51565b91506127a182613421565b602082019050919050565b60006127b9606383612f62565b91506127c48261344a565b606382019050919050565b60006127dc600b83612f62565b91506127e7826134e5565b600b82019050919050565b60006127ff602c83612f51565b915061280a8261350e565b604082019050919050565b6000612822600d83612f62565b915061282d8261355d565b600d82019050919050565b6000612845603883612f51565b915061285082613586565b604082019050919050565b6000612868602a83612f51565b9150612873826135d5565b604082019050919050565b600061288b602983612f51565b915061289682613624565b604082019050919050565b60006128ae602e83612f51565b91506128b982613673565b604082019050919050565b60006128d1600283612f62565b91506128dc826136c2565b600282019050919050565b60006128f4602083612f51565b91506128ff826136eb565b602082019050919050565b6000612917603183612f51565b915061292282613714565b604082019050919050565b600061293a602c83612f51565b915061294582613763565b604082019050919050565b600061295d602f83612f51565b9150612968826137b2565b604082019050919050565b6000612980600a83612f62565b915061298b82613801565b600a82019050919050565b60006129a3602183612f51565b91506129ae8261382a565b604082019050919050565b60006129c6600a83612f62565b91506129d182613879565b600a82019050919050565b60006129e9601d83612f62565b91506129f4826138a2565b601d82019050919050565b6000612a0c603183612f51565b9150612a17826138cb565b604082019050919050565b612a2b816130ec565b82525050565b6000612a3d828461262a565b915081905092915050565b6000612a54828561262a565b9150612a60828461262a565b91508190509392505050565b6000612a78828661262a565b9150612a84828561262a565b9150612a90828461262a565b9150819050949350505050565b6000612aa9828561265b565b9150612ab5828461262a565b9150612ac082612815565b91508190509392505050565b6000612ad782612743565b9150612ae3828461262a565b915081905092915050565b6000612af9826127cf565b9150612b05828461262a565b915081905092915050565b6000612b1b82612973565b9150612b27828561262a565b9150612b32826127ac565b9150612b3e828461262a565b9150612b49826128c4565b91508190509392505050565b6000612b60826129b9565b9150612b6c828461262a565b915081905092915050565b6000612b82826129dc565b9150612b8e828461262a565b915081905092915050565b6000602082019050612bae600083018461259a565b92915050565b6000608082019050612bc9600083018761259a565b612bd6602083018661259a565b612be36040830185612a22565b8181036060830152612bf581846125b8565b905095945050505050565b6000604082019050612c15600083018561259a565b612c226020830184612a22565b9392505050565b6000602082019050612c3e60008301846125a9565b92915050565b60006020820190508181036000830152612c5e81846125f1565b905092915050565b60006060820190508181036000830152612c8081866125f1565b9050612c8f6020830185612a22565b612c9c604083018461259a565b949350505050565b60006020820190508181036000830152612cbd816126da565b9050919050565b60006020820190508181036000830152612cdd816126fd565b9050919050565b60006020820190508181036000830152612cfd81612720565b9050919050565b60006020820190508181036000830152612d1d81612766565b9050919050565b60006020820190508181036000830152612d3d81612789565b9050919050565b60006020820190508181036000830152612d5d816127f2565b9050919050565b60006020820190508181036000830152612d7d81612838565b9050919050565b60006020820190508181036000830152612d9d8161285b565b9050919050565b60006020820190508181036000830152612dbd8161287e565b9050919050565b60006020820190508181036000830152612ddd816128a1565b9050919050565b60006020820190508181036000830152612dfd816128e7565b9050919050565b60006020820190508181036000830152612e1d8161290a565b9050919050565b60006020820190508181036000830152612e3d8161292d565b9050919050565b60006020820190508181036000830152612e5d81612950565b9050919050565b60006020820190508181036000830152612e7d81612996565b9050919050565b60006020820190508181036000830152612e9d816129ff565b9050919050565b6000602082019050612eb96000830184612a22565b92915050565b6000612ec9612eda565b9050612ed5828261316a565b919050565b6000604051905090565b600067ffffffffffffffff821115612eff57612efe6132a2565b5b612f08826132d1565b9050602081019050919050565b60008190508160005260206000209050919050565b600081519050919050565b600081519050919050565b600082825260208201905092915050565b600082825260208201905092915050565b600081905092915050565b6000612f78826130ec565b9150612f83836130ec565b9250827fffffffffffffffffffffffffffffffffffffffffffffffffffffffffffffffff03821115612fb857612fb7613215565b5b828201905092915050565b6000612fce826130ec565b9150612fd9836130ec565b925082612fe957612fe8613244565b5b828204905092915050565b6000612fff826130ec565b915061300a836130ec565b9250817fffffffffffffffffffffffffffffffffffffffffffffffffffffffffffffffff048311821515161561304357613042613215565b5b828202905092915050565b6000613059826130ec565b9150613064836130ec565b92508282101561307757613076613215565b5b828203905092915050565b600061308d826130cc565b9050919050565b60008115159050919050565b60007fffffffff0000000000000000000000000000000000000000000000000000000082169050919050565b600073ffffffffffffffffffffffffffffffffffffffff82169050919050565b6000819050919050565b82818337600083830152505050565b60005b83811015613123578082015181840152602081019050613108565b83811115613132576000848401525b50505050565b6000600282049050600182168061315057607f821691505b6020821081141561316457613163613273565b5b50919050565b613173826132d1565b810181811067ffffffffffffffff82111715613192576131916132a2565b5b80604052505050565b60006131a6826130ec565b91507fffffffffffffffffffffffffffffffffffffffffffffffffffffffffffffffff8214156131d9576131d8613215565b5b600182019050919050565b60006131ef826130ec565b91506131fa836130ec565b92508261320a57613209613244565b5b828206905092915050565b7f4e487b7100000000000000000000000000000000000000000000000000000000600052601160045260246000fd5b7f4e487b7100000000000000000000000000000000000000000000000000000000600052601260045260246000fd5b7f4e487b7100000000000000000000000000000000000000000000000000000000600052602260045260246000fd5b7f4e487b7100000000000000000000000000000000000000000000000000000000600052604160045260246000fd5b6000601f19601f8301169050919050565b7f4552433732313a207472616e7366657220746f206e6f6e20455243373231526560008201527f63656976657220696d706c656d656e7465720000000000000000000000000000602082015250565b7f4552433732313a207472616e736665722066726f6d20696e636f72726563742060008201527f6f776e6572000000000000000000000000000000000000000000000000000000602082015250565b7f4552433732313a20746f6b656e20616c7265616479206d696e74656400000000600082015250565b7f54484952445f574f524400000000000000000000000000000000000000000000600082015250565b7f4552433732313a207472616e7366657220746f20746865207a65726f2061646460008201527f7265737300000000000000000000000000000000000000000000000000000000602082015250565b7f4552433732313a20617070726f766520746f2063616c6c657200000000000000600082015250565b7f222c20226465736372697074696f6e223a20224120686967686c79206163636c60008201527f61696d656420636f6c6c656374696f6e206f6620737175617265732e222c202260208201527f696d616765223a2022646174613a696d6167652f7376672b786d6c3b6261736560408201527f36342c0000000000000000000000000000000000000000000000000000000000606082015250565b7f5345434f4e445f574f5244000000000000000000000000000000000000000000600082015250565b7f4552433732313a206f70657261746f7220717565727920666f72206e6f6e657860008201527f697374656e7420746f6b656e0000000000000000000000000000000000000000602082015250565b7f3c2f746578743e3c2f7376673e00000000000000000000000000000000000000600082015250565b7f4552433732313a20617070726f76652063616c6c6572206973206e6f74206f7760008201527f6e6572206e6f7220617070726f76656420666f7220616c6c0000000000000000602082015250565b7f4552433732313a2062616c616e636520717565727920666f7220746865207a6560008201527f726f206164647265737300000000000000000000000000000000000000000000602082015250565b7f4552433732313a206f776e657220717565727920666f72206e6f6e657869737460008201527f656e7420746f6b656e0000000000000000000000000000000000000000000000602082015250565b7f45524337323155524953746f726167653a2055524920736574206f66206e6f6e60008201527f6578697374656e7420746f6b656e000000000000000000000000000000000000602082015250565b7f227d000000000000000000000000000000000000000000000000000000000000600082015250565b7f4552433732313a206d696e7420746f20746865207a65726f2061646472657373600082015250565b7f45524337323155524953746f726167653a2055524920717565727920666f722060008201527f6e6f6e6578697374656e7420746f6b656e000000000000000000000000000000602082015250565b7f4552433732313a20617070726f76656420717565727920666f72206e6f6e657860008201527f697374656e7420746f6b656e0000000000000000000000000000000000000000602082015250565b7f4552433732314d657461646174613a2055524920717565727920666f72206e6f60008201527f6e6578697374656e7420746f6b656e0000000000000000000000000000000000602082015250565b7f7b226e616d65223a202200000000000000000000000000000000000000000000600082015250565b7f4552433732313a20617070726f76616c20746f2063757272656e74206f776e6560008201527f7200000000000000000000000000000000000000000000000000000000000000602082015250565b7f46495253545f574f524400000000000000000000000000000000000000000000600082015250565b7f646174613a6170706c69636174696f6e2f6a736f6e3b6261736536342c000000600082015250565b7f4552433732313a207472616e736665722063616c6c6572206973206e6f74206f60008201527f776e6572206e6f7220617070726f766564000000000000000000000000000000602082015250565b61392381613082565b811461392e57600080fd5b50565b61393a81613094565b811461394557600080fd5b50565b613951816130a0565b811461395c57600080fd5b50565b613968816130ec565b811461397357600080fd5b5056fe416e204e465420772f20494420257320686173206265656e206d696e74656420746f2025734142434445464748494a4b4c4d4e4f505152535455565758595a6162636465666768696a6b6c6d6e6f707172737475767778797a303132333435363738392b2fa26469706673582212201fd2c719d7cc7ac2e7baa89e5e7446931c0296153761370d644d8d46684e7f8e64736f6c634300080400333c73766720786d6c6e733d27687474703a2f2f7777772e77332e6f72672f323030302f73766727207072657365727665417370656374526174696f3d27784d696e594d696e206d656574272076696577426f783d273020302033353020333530273e3c7374796c653e2e62617365207b2066696c6c3a2077686974653b20666f6e742d66616d696c793a2073657269663b20666f6e742d73697a653a20323470783b207d3c2f7374796c653e3c726563742077696474683d273130302527206865696768743d2731303025272066696c6c3d27626c61636b27202f3e3c7465787420783d273530252720793d273530252720636c6173733d27626173652720646f6d696e616e742d626173656c696e653d276d6964646c652720746578742d616e63686f723d276d6964646c65273e54686973206973206d79206669727374204e465420636f6c6c656374696f6e2c204c464721",
  "linkReferences": {},
  "deployedLinkReferences": {}
}